{
  "contractName": "Blockspace",
  "abi": [
    {
      "constant": true,
      "inputs": [
        {
          "name": "",
          "type": "uint256"
        }
      ],
      "name": "spaceIds",
      "outputs": [
        {
          "name": "",
          "type": "uint256"
        }
      ],
      "payable": false,
      "stateMutability": "view",
      "type": "function"
    },
    {
      "constant": true,
      "inputs": [
        {
          "name": "",
          "type": "uint256"
        }
      ],
      "name": "spaces",
      "outputs": [
        {
          "name": "lat",
          "type": "int256"
        },
        {
          "name": "long",
          "type": "int256"
        },
        {
          "name": "id",
          "type": "uint256"
        },
        {
          "name": "active",
          "type": "bool"
        }
      ],
      "payable": false,
      "stateMutability": "view",
      "type": "function"
    },
    {
      "inputs": [
        {
          "name": "_startEpoch",
          "type": "uint256"
        }
      ],
      "payable": false,
      "stateMutability": "nonpayable",
      "type": "constructor"
    },
    {
      "anonymous": false,
      "inputs": [
        {
          "indexed": false,
          "name": "id",
          "type": "uint256"
        },
        {
          "indexed": false,
          "name": "owner",
          "type": "address"
        }
      ],
      "name": "SpaceCreated",
      "type": "event"
    },
    {
      "anonymous": false,
      "inputs": [
        {
          "indexed": false,
          "name": "spaceId",
          "type": "uint256"
        },
        {
          "indexed": false,
          "name": "start",
          "type": "uint16"
        },
        {
          "indexed": false,
          "name": "end",
          "type": "uint16"
        },
        {
          "indexed": false,
          "name": "amtPaid",
          "type": "uint256"
        }
      ],
      "name": "ReservationCreated",
      "type": "event"
    },
    {
      "anonymous": false,
      "inputs": [
        {
          "indexed": false,
          "name": "spaceId",
          "type": "uint256"
        },
        {
          "indexed": false,
          "name": "start",
          "type": "uint16"
        },
        {
          "indexed": false,
          "name": "paidAmt",
          "type": "uint256"
        },
        {
          "indexed": false,
          "name": "payee",
          "type": "address"
        }
      ],
      "name": "ReservationPaid",
      "type": "event"
    },
    {
      "anonymous": false,
      "inputs": [
        {
          "indexed": false,
          "name": "spaceId",
          "type": "uint256"
        },
        {
          "indexed": false,
          "name": "start",
          "type": "uint16"
        },
        {
          "indexed": false,
          "name": "refund",
          "type": "uint256"
        },
        {
          "indexed": false,
          "name": "owner",
          "type": "address"
        }
      ],
      "name": "ReservationCancelled",
      "type": "event"
    },
    {
      "constant": false,
      "inputs": [
        {
          "name": "_deposit",
          "type": "uint256"
        }
      ],
      "name": "updateDepositAmount",
      "outputs": [],
      "payable": false,
      "stateMutability": "nonpayable",
      "type": "function"
    },
    {
      "constant": false,
      "inputs": [
        {
          "name": "_deadline",
          "type": "uint256"
        }
      ],
      "name": "updateDeadline",
      "outputs": [],
      "payable": false,
      "stateMutability": "nonpayable",
      "type": "function"
    },
    {
      "constant": false,
      "inputs": [
        {
          "name": "_lat",
          "type": "int256"
        },
        {
          "name": "_long",
          "type": "int256"
        }
      ],
      "name": "createSpace",
      "outputs": [],
      "payable": false,
      "stateMutability": "nonpayable",
      "type": "function"
    },
    {
      "constant": false,
      "inputs": [
        {
          "name": "_spaceId",
          "type": "uint256"
        },
        {
          "name": "_start",
          "type": "uint16"
        },
        {
          "name": "_end",
          "type": "uint16"
        }
      ],
      "name": "createReservation",
      "outputs": [],
      "payable": true,
      "stateMutability": "payable",
      "type": "function"
    },
    {
      "constant": false,
      "inputs": [
        {
          "name": "_spaceId",
          "type": "uint256"
        },
        {
          "name": "_resStart",
          "type": "uint16"
        }
      ],
      "name": "payReservation",
      "outputs": [],
      "payable": true,
      "stateMutability": "payable",
      "type": "function"
    },
    {
      "constant": false,
      "inputs": [
        {
          "name": "_spaceId",
          "type": "uint256"
        },
        {
          "name": "_resStart",
          "type": "uint16"
        }
      ],
      "name": "cancelReservation",
      "outputs": [],
      "payable": false,
      "stateMutability": "nonpayable",
      "type": "function"
    },
    {
      "constant": true,
      "inputs": [],
      "name": "getStartEpoch",
      "outputs": [
        {
          "name": "",
          "type": "uint256"
        }
      ],
      "payable": false,
      "stateMutability": "view",
      "type": "function"
    },
    {
      "constant": true,
      "inputs": [],
      "name": "getDepositAmount",
      "outputs": [
        {
          "name": "",
          "type": "uint256"
        }
      ],
      "payable": false,
      "stateMutability": "view",
      "type": "function"
    },
    {
      "constant": true,
      "inputs": [],
      "name": "getSpaces",
      "outputs": [
        {
          "name": "",
          "type": "uint256[]"
        }
      ],
      "payable": false,
      "stateMutability": "view",
      "type": "function"
    },
    {
      "constant": true,
      "inputs": [
        {
          "name": "_id",
          "type": "uint256"
        }
      ],
      "name": "getSpace",
      "outputs": [
        {
          "name": "lat",
          "type": "int256"
        },
        {
          "name": "long",
          "type": "int256"
        },
        {
          "name": "id",
          "type": "uint256"
        },
        {
          "name": "active",
          "type": "bool"
        }
      ],
      "payable": false,
      "stateMutability": "view",
      "type": "function"
    },
    {
      "constant": true,
      "inputs": [
        {
          "name": "_spaceId",
          "type": "uint256"
        },
        {
          "name": "_start",
          "type": "uint16"
        },
        {
          "name": "_end",
          "type": "uint16"
        }
      ],
      "name": "getReservations",
      "outputs": [
        {
          "name": "owners",
          "type": "address[]"
        },
        {
          "name": "starts",
          "type": "uint16[]"
        },
        {
          "name": "ends",
          "type": "uint16[]"
        },
        {
          "name": "amts",
          "type": "uint256[]"
        }
      ],
      "payable": false,
      "stateMutability": "view",
      "type": "function"
    },
    {
      "constant": true,
      "inputs": [
        {
          "name": "_spaceId",
          "type": "uint256"
        },
        {
          "name": "_start",
          "type": "uint16"
        },
        {
          "name": "_end",
          "type": "uint16"
        }
      ],
      "name": "getAvailability",
      "outputs": [
        {
          "name": "availability",
          "type": "bool[]"
        }
      ],
      "payable": false,
      "stateMutability": "view",
      "type": "function"
    },
    {
      "constant": true,
      "inputs": [
        {
          "name": "_owner",
          "type": "address"
        }
      ],
      "name": "getReservationsForOwner",
      "outputs": [
        {
          "name": "",
          "type": "uint16[]"
        }
      ],
      "payable": false,
      "stateMutability": "view",
      "type": "function"
    }
  ],
  "bytecode": "0x6080604052600060015534801561001557600080fd5b50604051602080610e70833981016040525160008054600160a060020a03191633179055600355610e258061004b6000396000f3006080604052600436106100da5763ffffffff7c01000000000000000000000000000000000000000000000000000000006000350416630a26ec9d81146100df5780630e019de1146100f957806315478ca9146101145780633beb0b4b1461017957806342af18841461019e578063431f6257146101b657806363006a6a146101d557806370e10431146101ff5780637586353b1461023f5780637d96f6931461025757806394f028521461026c578063cc665cc61461027e578063e42c9b8314610293578063e7e41f2d146103db578063fe3adc49146103f3575b600080fd5b6100f760043561ffff60243581169060443516610421565b005b34801561010557600080fd5b506100f76004356024356105e4565b34801561012057600080fd5b50610129610700565b60408051602080825283518183015283519192839290830191858101910280838360005b8381101561016557818101518382015260200161014d565b505050509050019250505060405180910390f35b34801561018557600080fd5b5061012960043561ffff60243581169060443516610758565b3480156101aa57600080fd5b506100f760043561080a565b3480156101c257600080fd5b506100f760043561ffff6024351661080f565b3480156101e157600080fd5b506101ed600435610971565b60408051918252519081900360200190f35b34801561020b57600080fd5b50610217600435610990565b6040805194855260208501939093528383019190915215156060830152519081900360800190f35b34801561024b57600080fd5b506102176004356109bb565b34801561026357600080fd5b506101ed6109e5565b6100f760043561ffff602435166109eb565b34801561028a57600080fd5b506101ed610a64565b34801561029f57600080fd5b506102b860043561ffff60243581169060443516610a6a565b6040518080602001806020018060200180602001858103855289818151815260200191508051906020019060200280838360005b838110156103045781810151838201526020016102ec565b50505050905001858103845288818151815260200191508051906020019060200280838360005b8381101561034357818101518382015260200161032b565b50505050905001858103835287818151815260200191508051906020019060200280838360005b8381101561038257818101518382015260200161036a565b50505050905001858103825286818151815260200191508051906020019060200280838360005b838110156103c15781810151838201526020016103a9565b505050509050019850505050505050505060405180910390f35b3480156103e757600080fd5b506100f7600435610c88565b3480156103ff57600080fd5b5061012973ffffffffffffffffffffffffffffffffffffffff60043516610c8d565b600061042b610da7565b60015434101561043a57600080fd5b6104478585856001610d2e565b505060008381526006602090815260408083208151608081810184523380835261ffff808a168488018181528a8316868901908152346060808901918252848d5260048a018c528a8d2089518154865186518a16760100000000000000000000000000000000000000000000027fffffffffffffffff0000ffffffffffffffffffffffffffffffffffffffffffff918b16740100000000000000000000000000000000000000000275ffff00000000000000000000000000000000000000001973ffffffffffffffffffffffffffffffffffffffff9590951673ffffffffffffffffffffffffffffffffffffffff19909416939093179390931691909117161781558251600191820155968d5260078c528a8d20805497880181558d529b8b9020601087040180546002600f909816979097026101000a9485029486021990961693909317909455519251905187518d8152938316988401989098521681860152958601949094529151909391927f33f2df23d2dc025ca1593a669f738b5f1f3295da9c788b099bbdee843fcf0c03928290030190a15050505050565b6105ec610dce565b60005473ffffffffffffffffffffffffffffffffffffffff16331461061057600080fd5b5060408051608081018252838152602080820184815260048054848601818152600060608701818152928152600686528781208751815594516001808701919091558251600287015592516003909501805460ff19169515159590951790945582546005805480850182559086527f036b6384b5eca791c62761152d0c79bb0604c104a5fb6f4eb0703f3154bb3db001819055909101909155519054845191825273ffffffffffffffffffffffffffffffffffffffff1691810191909152825191927fb86ecf9543f771ac118830339392a31c2ef19181bb1f831fa033235771791aa192918290030190a1505050565b6060600580548060200260200160405190810160405280929190818152602001828054801561074e57602002820191906000526020600020905b81548152602001906001019080831161073a575b5050505050905090565b60606000808484036001019150600090508161ffff16604051908082528060200260200182016040528015610797578160200160208202803883390190505b5092505b8361ffff168561ffff16101561080157600086815260066020908152604080832061ffff808a168552600590910190925290912054845160ff9091169185919084169081106107e657fe5b9115156020928302909101909101526001948501940161079b565b50509392505050565b600255565b600082815260066020908152604080832061ffff8516845260048101909252822080549192909173ffffffffffffffffffffffffffffffffffffffff16331461085757600080fd5b815461089f90869061ffff7401000000000000000000000000000000000000000082048116917601000000000000000000000000000000000000000000009004166000610d2e565b600154826001015403905060008110156108e257604051339082156108fc029083906000818181858888f193505050501580156108e0573d6000803e3d6000fd5b505b61ffff84166000818152600485016020908152604080832080547fffffffffffffffff00000000000000000000000000000000000000000000000016815560010192909255815188815290810192909252818101839052336060830152517fc14487b4b8fce26f004e4c345ee3201334262495943b17c6e6edbb7a326a3d8a9181900360800190a15050505050565b600580548290811061097f57fe5b600091825260209091200154905081565b6000908152600660205260409020805460018201546002830154600390930154919390929160ff1690565b60066020526000908152604090208054600182015460028301546003909301549192909160ff1684565b60015490565b600082815260066020908152604080832061ffff851680855260049091018352928190206001018054349081019091558151868152928301939093528181019290925233606082015290517f65038c08f26d0936c4752005559916b267bc5c5203ef881a7b4b65dce1e2f8169181900360800190a15050565b60035490565b60608060608060008060008888036001019250600091508261ffff16604051908082528060200260200182016040528015610aaf578160200160208202803883390190505b5096508261ffff16604051908082528060200260200182016040528015610ae0578160200160208202803883390190505b5095508261ffff16604051908082528060200260200182016040528015610b11578160200160208202803883390190505b5094508261ffff16604051908082528060200260200182016040528015610b42578160200160208202803883390190505b5093505b8761ffff168961ffff161015610c7c5750600089815260066020908152604080832061ffff808d168552600490910190925290912080548851919273ffffffffffffffffffffffffffffffffffffffff9091169189918516908110610ba757fe5b73ffffffffffffffffffffffffffffffffffffffff9092166020928302909101909101528054865161ffff740100000000000000000000000000000000000000009092048216918891908516908110610bfc57fe5b61ffff92831660209182029092010152815486517601000000000000000000000000000000000000000000009091048216918791908516908110610c3c57fe5b61ffff928316602091820290920101526001820154855190918691908516908110610c6357fe5b6020908102909101015260019889019890910190610b46565b50505093509350935093565b600155565b73ffffffffffffffffffffffffffffffffffffffff8116600090815260076020908152604091829020805483518184028101840190945280845260609392830182828015610d2257602002820191906000526020600020906000905b82829054906101000a900461ffff1661ffff1681526020019060020190602082600101049283019260010382029150808411610ce95790505b50505050509050919050565b8161ffff168361ffff161015610da157600084815260066020908152604080832061ffff8716845260050190915290205460ff161515811514610d7057600080fd5b600084815260066020908152604080832061ffff871684526005019091529020805460ff1916821515179055610d2e565b50505050565b60408051608081018252600080825260208201819052918101829052606081019190915290565b60806040519081016040528060008152602001600081526020016000815260200160001515815250905600a165627a7a723058207fdb062c5ed6e0d32d5ac9834be12cab103cf6b0d2b9ad4dabf6fd83578530cb0029",
  "source": "pragma solidity ^0.4.24;\n\ncontract Blockspace {\n    address owner;\n\n    uint depositAmount = 0;\n\n    uint depositDeadline;\n\n    uint startEpoch;//the unix epoch at the time of deployment, used to define the index day for the scheduler\n\n    event SpaceCreated(uint id, address owner);\n    event ReservationCreated(uint spaceId, uint16 start, uint16 end, uint amtPaid);\n    event ReservationPaid(uint spaceId, uint16 start, uint paidAmt, address payee);\n    event ReservationCancelled(uint spaceId, uint16 start, uint refund, address owner);\n\n\n    struct Reservation {\n        address owner;\n        uint16 start;\n        uint16 end;\n        uint amtPaid;\n    }\n\n    struct Space {\n        int lat;\n        int long;\n        uint id;\n        bool active;\n        mapping(uint16 => Reservation) reservations;\n        mapping(uint16 => bool) availability;\n    }\n\n    uint spaceId;\n\n    uint[] public spaceIds;\n\n    mapping (uint => Space) public spaces;\n    mapping (address => uint16[]) ownerReservations;\n\n\n    constructor (uint _startEpoch) public {\n        owner = msg.sender;\n        startEpoch = _startEpoch;\n    }\n\n    function updateDepositAmount(uint _deposit) public {\n        depositAmount = _deposit;\n    }\n\n    function updateDeadline(uint _deadline) public {\n        depositDeadline = _deadline;\n    }\n\n    function createSpace(int _lat, int _long) public {\n        require(msg.sender == owner);\n        Space memory space = Space(_lat, _long, spaceId, false);\n        spaces[spaceId] = space;\n        spaceIds.push(spaceId);\n        spaceId += 1;\n        emit SpaceCreated(space.id, owner);\n    }\n\n    function updateAvailability (uint _spaceId, uint16 _start, uint16 _end, bool isAvailable) private {\n        while (_start < _end) {\n            require(spaces[_spaceId].availability[_start] == !isAvailable);\n                spaces[_spaceId].availability[_start] = isAvailable;\n        }\n    }\n\n    function createReservation(uint _spaceId, uint16 _start, uint16 _end) public payable {\n        require(msg.value >= depositAmount);\n        updateAvailability(_spaceId, _start, _end, true);\n        Space storage space = spaces[_spaceId];\n        Reservation memory reservation = Reservation(msg.sender, _start, _end, msg.value);\n        space.reservations[_start] = reservation;\n        ownerReservations[msg.sender].push(_start);\n\n        emit ReservationCreated(_spaceId, reservation.start, reservation.end, reservation.amtPaid);\n    }\n\n    function payReservation (uint _spaceId, uint16 _resStart) public payable {\n        spaces[_spaceId].reservations[_resStart].amtPaid += msg.value;\n        emit ReservationPaid(_spaceId, _resStart, msg.value, msg.sender);\n    }\n\n    function cancelReservation(uint _spaceId, uint16 _resStart) public {\n        Space storage space = spaces[_spaceId];\n        Reservation storage reservation = space.reservations[_resStart];\n        require(reservation.owner == msg.sender);\n        updateAvailability(_spaceId, reservation.start, reservation.end, false);\n        uint refundAmt = reservation.amtPaid - depositAmount;\n\n        if (refundAmt < 0) {\n            msg.sender.transfer(refundAmt);\n        }\n\n        delete space.reservations[_resStart];\n        emit ReservationCancelled(_spaceId, _resStart, refundAmt, msg.sender);\n\n    }\n\n    function getStartEpoch() public view returns (uint) {\n        return startEpoch;\n    }\n\n    function getDepositAmount() public view returns (uint) {\n        return depositAmount;\n    }\n\n    function getSpaces() public view returns (uint[]) {\n        return spaceIds;\n    }\n\n    function getSpace(uint _id) public view returns (int lat, int long, uint id, bool active) {\n        Space storage space = spaces[_id];\n        return (space.lat, space.long, space.id, space.active);\n    }\n\n    function getReservations(uint _spaceId, uint16 _start, uint16 _end) public view returns (address[] owners, uint16[] starts, uint16[] ends, uint[] amts) {\n        uint16 reservationsCount = _end - _start + 1;\n        uint16 index = 0;\n        owners = new address[](reservationsCount);\n        starts = new uint16[](reservationsCount);\n        ends = new uint16[](reservationsCount);\n        amts = new uint[](reservationsCount);\n        for (_start; _start < _end; _start++) {\n            Reservation storage reservation = spaces[_spaceId].reservations[_start];\n            owners[index] = reservation.owner;\n            starts[index] = reservation.start;\n            ends[index] = reservation.end;\n            amts[index] = reservation.amtPaid;\n            index++;\n        }\n\n        return (owners, starts, ends, amts);\n\n    }\n\n    function getAvailability(uint _spaceId, uint16 _start, uint16 _end) public view returns (bool[] availability) {\n        uint16 availabilityCount = _end - _start + 1;\n        uint16 index = 0;\n        availability = new bool[](availabilityCount);\n        while (_start < _end) {\n            availability[index] = spaces[_spaceId].availability[_start];\n            _start++;\n            index++;\n        }\n\n        return availability;\n    }\n\n    function getReservationsForOwner (address _owner) public view returns (uint16[]) {\n        return ownerReservations[_owner];\n    }\n\n }\n",
  "sourcePath": "/home/steve/codes/da_block/daily_lease/contracts/Blockspace.sol",
  "compiler": {
    "name": "solc",
    "version": "0.4.24+commit.e67f0147.Emscripten.clang"
  },
  "schemaVersion": "2.0.0",
  "updatedAt": "2018-08-07T18:03:07.209Z"
}